{
  "contractName": "Vault",
  "abi": [
    {
      "inputs": [],
      "stateMutability": "nonpayable",
      "type": "constructor"
    },
    {
      "anonymous": false,
      "inputs": [
        {
          "indexed": true,
          "internalType": "address",
          "name": "previousOwner",
          "type": "address"
        },
        {
          "indexed": true,
          "internalType": "address",
          "name": "newOwner",
          "type": "address"
        }
      ],
      "name": "OwnershipTransferred",
      "type": "event"
    },
    {
      "anonymous": false,
      "inputs": [
        {
          "indexed": false,
          "internalType": "address",
          "name": "withdrawer",
          "type": "address"
        },
        {
          "indexed": false,
          "internalType": "uint256",
          "name": "amount",
          "type": "uint256"
        }
      ],
      "name": "Withdraw",
      "type": "event"
    },
    {
      "inputs": [
        {
          "internalType": "address",
          "name": "",
          "type": "address"
        },
        {
          "internalType": "uint256",
          "name": "",
          "type": "uint256"
        }
      ],
      "name": "depositsByTokenAddress",
      "outputs": [
        {
          "internalType": "uint256",
          "name": "",
          "type": "uint256"
        }
      ],
      "stateMutability": "view",
      "type": "function",
      "constant": true
    },
    {
      "inputs": [
        {
          "internalType": "address",
          "name": "",
          "type": "address"
        },
        {
          "internalType": "uint256",
          "name": "",
          "type": "uint256"
        }
      ],
      "name": "depositsByWithdrawers",
      "outputs": [
        {
          "internalType": "uint256",
          "name": "",
          "type": "uint256"
        }
      ],
      "stateMutability": "view",
      "type": "function",
      "constant": true
    },
    {
      "inputs": [],
      "name": "depositsCount",
      "outputs": [
        {
          "internalType": "uint256",
          "name": "",
          "type": "uint256"
        }
      ],
      "stateMutability": "view",
      "type": "function",
      "constant": true
    },
    {
      "inputs": [],
      "name": "helpiMarketingAddress",
      "outputs": [
        {
          "internalType": "address",
          "name": "",
          "type": "address"
        }
      ],
      "stateMutability": "view",
      "type": "function",
      "constant": true
    },
    {
      "inputs": [
        {
          "internalType": "uint256",
          "name": "",
          "type": "uint256"
        }
      ],
      "name": "lockedToken",
      "outputs": [
        {
          "internalType": "contract IERC20",
          "name": "token",
          "type": "address"
        },
        {
          "internalType": "address",
          "name": "withdrawer",
          "type": "address"
        },
        {
          "internalType": "uint256",
          "name": "amount",
          "type": "uint256"
        },
        {
          "internalType": "uint256",
          "name": "unlockTimestamp",
          "type": "uint256"
        },
        {
          "internalType": "bool",
          "name": "withdrawn",
          "type": "bool"
        },
        {
          "internalType": "bool",
          "name": "deposited",
          "type": "bool"
        }
      ],
      "stateMutability": "view",
      "type": "function",
      "constant": true
    },
    {
      "inputs": [],
      "name": "owner",
      "outputs": [
        {
          "internalType": "address",
          "name": "",
          "type": "address"
        }
      ],
      "stateMutability": "view",
      "type": "function",
      "constant": true
    },
    {
      "inputs": [],
      "name": "renounceOwnership",
      "outputs": [],
      "stateMutability": "nonpayable",
      "type": "function"
    },
    {
      "inputs": [
        {
          "internalType": "address",
          "name": "newOwner",
          "type": "address"
        }
      ],
      "name": "transferOwnership",
      "outputs": [],
      "stateMutability": "nonpayable",
      "type": "function"
    },
    {
      "inputs": [
        {
          "internalType": "address",
          "name": "",
          "type": "address"
        },
        {
          "internalType": "address",
          "name": "",
          "type": "address"
        }
      ],
      "name": "walletTokenBalance",
      "outputs": [
        {
          "internalType": "uint256",
          "name": "",
          "type": "uint256"
        }
      ],
      "stateMutability": "view",
      "type": "function",
      "constant": true
    },
    {
      "inputs": [
        {
          "internalType": "contract IERC20",
          "name": "_token",
          "type": "address"
        },
        {
          "internalType": "address",
          "name": "_withdrawer",
          "type": "address"
        },
        {
          "internalType": "uint256",
          "name": "_amount",
          "type": "uint256"
        },
        {
          "internalType": "uint256",
          "name": "_unlockTimestamp",
          "type": "uint256"
        }
      ],
      "name": "lockTokens",
      "outputs": [
        {
          "internalType": "uint256",
          "name": "_id",
          "type": "uint256"
        }
      ],
      "stateMutability": "nonpayable",
      "type": "function"
    },
    {
      "inputs": [
        {
          "internalType": "uint256",
          "name": "_id",
          "type": "uint256"
        }
      ],
      "name": "withdrawTokens",
      "outputs": [],
      "stateMutability": "nonpayable",
      "type": "function"
    },
    {
      "inputs": [
        {
          "internalType": "address",
          "name": "_id",
          "type": "address"
        }
      ],
      "name": "getDepositsByTokenAddress",
      "outputs": [
        {
          "internalType": "uint256[]",
          "name": "",
          "type": "uint256[]"
        }
      ],
      "stateMutability": "view",
      "type": "function",
      "constant": true
    },
    {
      "inputs": [
        {
          "internalType": "address",
          "name": "_token",
          "type": "address"
        },
        {
          "internalType": "address",
          "name": "_withdrawer",
          "type": "address"
        }
      ],
      "name": "getDepositsByWithdrawer",
      "outputs": [
        {
          "internalType": "uint256",
          "name": "",
          "type": "uint256"
        }
      ],
      "stateMutability": "view",
      "type": "function",
      "constant": true
    },
    {
      "inputs": [
        {
          "internalType": "address",
          "name": "_withdrawer",
          "type": "address"
        }
      ],
      "name": "getVaultsByWithdrawer",
      "outputs": [
        {
          "internalType": "uint256[]",
          "name": "",
          "type": "uint256[]"
        }
      ],
      "stateMutability": "view",
      "type": "function",
      "constant": true
    },
    {
      "inputs": [
        {
          "internalType": "uint256",
          "name": "_id",
          "type": "uint256"
        }
      ],
      "name": "getVaultById",
      "outputs": [
        {
          "components": [
            {
              "internalType": "contract IERC20",
              "name": "token",
              "type": "address"
            },
            {
              "internalType": "address",
              "name": "withdrawer",
              "type": "address"
            },
            {
              "internalType": "uint256",
              "name": "amount",
              "type": "uint256"
            },
            {
              "internalType": "uint256",
              "name": "unlockTimestamp",
              "type": "uint256"
            },
            {
              "internalType": "bool",
              "name": "withdrawn",
              "type": "bool"
            },
            {
              "internalType": "bool",
              "name": "deposited",
              "type": "bool"
            }
          ],
          "internalType": "struct Vault.Items",
          "name": "",
          "type": "tuple"
        }
      ],
      "stateMutability": "view",
      "type": "function",
      "constant": true
    },
    {
      "inputs": [
        {
          "internalType": "address",
          "name": "_token",
          "type": "address"
        }
      ],
      "name": "getTokenTotalLockedBalance",
      "outputs": [
        {
          "internalType": "uint256",
          "name": "",
          "type": "uint256"
        }
      ],
      "stateMutability": "view",
      "type": "function",
      "constant": true
    }
  ],
  "bytecode": "0x608060405234801561001057600080fd5b5060006100216100c460201b60201c565b9050806000806101000a81548173ffffffffffffffffffffffffffffffffffffffff021916908373ffffffffffffffffffffffffffffffffffffffff1602179055508073ffffffffffffffffffffffffffffffffffffffff16600073ffffffffffffffffffffffffffffffffffffffff167f8be0079c531659141344cd1fd0a4f28419497f9722a3daafe3b4186f6b6457e060405160405180910390a3506100cc565b600033905090565b6126f5806100db6000396000f3fe608060405234801561001057600080fd5b50600436106101005760003560e01c806386f65a2211610097578063b78a153211610066578063b78a1532146102d5578063b9e7df1c14610305578063bb941cff14610335578063f2fde38b1461036a57610100565b806386f65a22146102275780638da5cb5b146102575780639470877614610275578063aa9ce2e6146102a557610100565b8063715018a6116100d3578063715018a61461019f57806371546b81146101a957806374e7ff9e146101d95780637d533c1e146101f757610100565b8063315a095d146101055780633fd97b9b146101215780634506e935146101515780636a8003301461016f575b600080fd5b61011f600480360381019061011a9190611a3f565b610386565b005b61013b60048036038101906101369190611977565b6107d3565b6040516101489190612146565b60405180910390f35b610159610804565b6040516101669190612146565b60405180910390f35b6101896004803603810190610184919061193b565b61080a565b6040516101969190612146565b60405180910390f35b6101a7610891565b005b6101c360048036038101906101be9190611912565b6109cb565b6040516101d09190611ee6565b60405180910390f35b6101e1610a62565b6040516101ee9190611e42565b60405180910390f35b610211600480360381019061020c91906119dc565b610a88565b60405161021e9190612146565b60405180910390f35b610241600480360381019061023c9190611912565b610f89565b60405161024e9190611ee6565b60405180910390f35b61025f611020565b60405161026c9190611e42565b60405180910390f35b61028f600480360381019061028a9190611a3f565b611049565b60405161029c919061212b565b60405180910390f35b6102bf60048036038101906102ba9190611977565b61116c565b6040516102cc9190612146565b60405180910390f35b6102ef60048036038101906102ea9190611912565b61119d565b6040516102fc9190612146565b60405180910390f35b61031f600480360381019061031a919061193b565b61122f565b60405161032c9190612146565b60405180910390f35b61034f600480360381019061034a9190611a3f565b611254565b60405161036196959493929190611f08565b60405180910390f35b610384600480360381019061037f9190611912565b6112ea565b005b60046000828152602001908152602001600020600301544210156103df576040517f08c379a00000000000000000000000000000000000000000000000000000000081526004016103d690611fcb565b60405180910390fd5b6004600082815260200190815260200160002060010160009054906101000a900473ffffffffffffffffffffffffffffffffffffffff1673ffffffffffffffffffffffffffffffffffffffff163373ffffffffffffffffffffffffffffffffffffffff1614610483576040517f08c379a000000000000000000000000000000000000000000000000000000000815260040161047a906120cb565b60405180910390fd5b6004600082815260200190815260200160002060040160019054906101000a900460ff166104e6576040517f08c379a00000000000000000000000000000000000000000000000000000000081526004016104dd90611f8b565b60405180910390fd5b6004600082815260200190815260200160002060040160009054906101000a900460ff161561054a576040517f08c379a000000000000000000000000000000000000000000000000000000000815260040161054190611feb565b60405180910390fd5b60016004600083815260200190815260200160002060040160006101000a81548160ff0219169083151502179055506106546004600083815260200190815260200160002060020154600560006004600086815260200190815260200160002060000160009054906101000a900473ffffffffffffffffffffffffffffffffffffffff1673ffffffffffffffffffffffffffffffffffffffff1673ffffffffffffffffffffffffffffffffffffffff16815260200190815260200160002060003373ffffffffffffffffffffffffffffffffffffffff1673ffffffffffffffffffffffffffffffffffffffff1681526020019081526020016000205461149390919063ffffffff16565b600560006004600085815260200190815260200160002060000160009054906101000a900473ffffffffffffffffffffffffffffffffffffffff1673ffffffffffffffffffffffffffffffffffffffff1673ffffffffffffffffffffffffffffffffffffffff16815260200190815260200160002060003373ffffffffffffffffffffffffffffffffffffffff1673ffffffffffffffffffffffffffffffffffffffff168152602001908152602001600020819055507f884edad9ce6fa2440d8a54cc123490eb96d2768479d49ff9c7366125a9424364336004600084815260200190815260200160002060020154604051610751929190611ebd565b60405180910390a16107d03360046000848152602001908152602001600020600201546004600085815260200190815260200160002060000160009054906101000a900473ffffffffffffffffffffffffffffffffffffffff1673ffffffffffffffffffffffffffffffffffffffff166114a99092919063ffffffff16565b50565b600260205281600052604060002081815481106107ef57600080fd5b90600052602060002001600091509150505481565b60015481565b6000600560008473ffffffffffffffffffffffffffffffffffffffff1673ffffffffffffffffffffffffffffffffffffffff16815260200190815260200160002060008373ffffffffffffffffffffffffffffffffffffffff1673ffffffffffffffffffffffffffffffffffffffff16815260200190815260200160002054905092915050565b61089961152f565b73ffffffffffffffffffffffffffffffffffffffff166108b7611020565b73ffffffffffffffffffffffffffffffffffffffff161461090d576040517f08c379a00000000000000000000000000000000000000000000000000000000081526004016109049061204b565b60405180910390fd5b600073ffffffffffffffffffffffffffffffffffffffff1660008054906101000a900473ffffffffffffffffffffffffffffffffffffffff1673ffffffffffffffffffffffffffffffffffffffff167f8be0079c531659141344cd1fd0a4f28419497f9722a3daafe3b4186f6b6457e060405160405180910390a360008060006101000a81548173ffffffffffffffffffffffffffffffffffffffff021916908373ffffffffffffffffffffffffffffffffffffffff160217905550565b6060600360008373ffffffffffffffffffffffffffffffffffffffff1673ffffffffffffffffffffffffffffffffffffffff168152602001908152602001600020805480602002602001604051908101604052809291908181526020018280548015610a5657602002820191906000526020600020905b815481526020019060010190808311610a42575b50505050509050919050565b600660009054906101000a900473ffffffffffffffffffffffffffffffffffffffff1681565b60006101f48311610ace576040517f08c379a0000000000000000000000000000000000000000000000000000000008152600401610ac5906120eb565b60405180910390fd5b6402540be4008210610b15576040517f08c379a0000000000000000000000000000000000000000000000000000000008152600401610b0c906120ab565b60405180910390fd5b428211610b57576040517f08c379a0000000000000000000000000000000000000000000000000000000008152600401610b4e9061206b565b60405180910390fd5b828573ffffffffffffffffffffffffffffffffffffffff1663dd62ed3e33306040518363ffffffff1660e01b8152600401610b93929190611e5d565b60206040518083038186803b158015610bab57600080fd5b505afa158015610bbf573d6000803e3d6000fd5b505050506040513d601f19601f82011682018060405250810190610be39190611a68565b1015610c24576040517f08c379a0000000000000000000000000000000000000000000000000000000008152600401610c1b9061202b565b60405180910390fd5b610c513330858873ffffffffffffffffffffffffffffffffffffffff16611537909392919063ffffffff16565b610ce083600560008873ffffffffffffffffffffffffffffffffffffffff1673ffffffffffffffffffffffffffffffffffffffff16815260200190815260200160002060003373ffffffffffffffffffffffffffffffffffffffff1673ffffffffffffffffffffffffffffffffffffffff168152602001908152602001600020546115c090919063ffffffff16565b600560008773ffffffffffffffffffffffffffffffffffffffff1673ffffffffffffffffffffffffffffffffffffffff16815260200190815260200160002060003373ffffffffffffffffffffffffffffffffffffffff1673ffffffffffffffffffffffffffffffffffffffff16815260200190815260200160002081905550600160008154610d6f90612307565b9190508190559050846004600083815260200190815260200160002060000160006101000a81548173ffffffffffffffffffffffffffffffffffffffff021916908373ffffffffffffffffffffffffffffffffffffffff160217905550836004600083815260200190815260200160002060010160006101000a81548173ffffffffffffffffffffffffffffffffffffffff021916908373ffffffffffffffffffffffffffffffffffffffff16021790555082600460008381526020019081526020016000206002018190555081600460008381526020019081526020016000206003018190555060006004600083815260200190815260200160002060040160006101000a81548160ff02191690831515021790555060016004600083815260200190815260200160002060040160016101000a81548160ff021916908315150217905550600260008673ffffffffffffffffffffffffffffffffffffffff1673ffffffffffffffffffffffffffffffffffffffff168152602001908152602001600020819080600181540180825580915050600190039060005260206000200160009091909190915055600360008573ffffffffffffffffffffffffffffffffffffffff1673ffffffffffffffffffffffffffffffffffffffff168152602001908152602001600020819080600181540180825580915050600190039060005260206000200160009091909190915055949350505050565b6060600260008373ffffffffffffffffffffffffffffffffffffffff1673ffffffffffffffffffffffffffffffffffffffff16815260200190815260200160002080548060200260200160405190810160405280929190818152602001828054801561101457602002820191906000526020600020905b815481526020019060010190808311611000575b50505050509050919050565b60008060009054906101000a900473ffffffffffffffffffffffffffffffffffffffff16905090565b611051611843565b600460008381526020019081526020016000206040518060c00160405290816000820160009054906101000a900473ffffffffffffffffffffffffffffffffffffffff1673ffffffffffffffffffffffffffffffffffffffff1673ffffffffffffffffffffffffffffffffffffffff1681526020016001820160009054906101000a900473ffffffffffffffffffffffffffffffffffffffff1673ffffffffffffffffffffffffffffffffffffffff1673ffffffffffffffffffffffffffffffffffffffff16815260200160028201548152602001600382015481526020016004820160009054906101000a900460ff161515151581526020016004820160019054906101000a900460ff1615151515815250509050919050565b6003602052816000526040600020818154811061118857600080fd5b90600052602060002001600091509150505481565b60008173ffffffffffffffffffffffffffffffffffffffff166370a08231306040518263ffffffff1660e01b81526004016111d89190611e42565b60206040518083038186803b1580156111f057600080fd5b505afa158015611204573d6000803e3d6000fd5b505050506040513d601f19601f820116820180604052508101906112289190611a68565b9050919050565b6005602052816000526040600020602052806000526040600020600091509150505481565b60046020528060005260406000206000915090508060000160009054906101000a900473ffffffffffffffffffffffffffffffffffffffff16908060010160009054906101000a900473ffffffffffffffffffffffffffffffffffffffff16908060020154908060030154908060040160009054906101000a900460ff16908060040160019054906101000a900460ff16905086565b6112f261152f565b73ffffffffffffffffffffffffffffffffffffffff16611310611020565b73ffffffffffffffffffffffffffffffffffffffff1614611366576040517f08c379a000000000000000000000000000000000000000000000000000000000815260040161135d9061204b565b60405180910390fd5b600073ffffffffffffffffffffffffffffffffffffffff168173ffffffffffffffffffffffffffffffffffffffff1614156113d6576040517f08c379a00000000000000000000000000000000000000000000000000000000081526004016113cd90611fab565b60405180910390fd5b8073ffffffffffffffffffffffffffffffffffffffff1660008054906101000a900473ffffffffffffffffffffffffffffffffffffffff1673ffffffffffffffffffffffffffffffffffffffff167f8be0079c531659141344cd1fd0a4f28419497f9722a3daafe3b4186f6b6457e060405160405180910390a3806000806101000a81548173ffffffffffffffffffffffffffffffffffffffff021916908373ffffffffffffffffffffffffffffffffffffffff16021790555050565b600081836114a19190612222565b905092915050565b61152a8363a9059cbb60e01b84846040516024016114c8929190611ebd565b604051602081830303815290604052907bffffffffffffffffffffffffffffffffffffffffffffffffffffffff19166020820180517bffffffffffffffffffffffffffffffffffffffffffffffffffffffff83818316178352505050506115d6565b505050565b600033905090565b6115ba846323b872dd60e01b85858560405160240161155893929190611e86565b604051602081830303815290604052907bffffffffffffffffffffffffffffffffffffffffffffffffffffffff19166020820180517bffffffffffffffffffffffffffffffffffffffffffffffffffffffff83818316178352505050506115d6565b50505050565b600081836115ce91906121cc565b905092915050565b6000611638826040518060400160405280602081526020017f5361666545524332303a206c6f772d6c6576656c2063616c6c206661696c65648152508573ffffffffffffffffffffffffffffffffffffffff1661169d9092919063ffffffff16565b9050600081511115611698578080602001905181019061165891906119b3565b611697576040517f08c379a000000000000000000000000000000000000000000000000000000000815260040161168e9061210b565b60405180910390fd5b5b505050565b60606116ac84846000856116b5565b90509392505050565b6060824710156116fa576040517f08c379a00000000000000000000000000000000000000000000000000000000081526004016116f19061200b565b60405180910390fd5b611703856117c9565b611742576040517f08c379a00000000000000000000000000000000000000000000000000000000081526004016117399061208b565b60405180910390fd5b6000808673ffffffffffffffffffffffffffffffffffffffff16858760405161176b9190611e2b565b60006040518083038185875af1925050503d80600081146117a8576040519150601f19603f3d011682016040523d82523d6000602084013e6117ad565b606091505b50915091506117bd8282866117dc565b92505050949350505050565b600080823b905060008111915050919050565b606083156117ec5782905061183c565b6000835111156117ff5782518084602001fd5b816040517f08c379a00000000000000000000000000000000000000000000000000000000081526004016118339190611f69565b60405180910390fd5b9392505050565b6040518060c00160405280600073ffffffffffffffffffffffffffffffffffffffff168152602001600073ffffffffffffffffffffffffffffffffffffffff16815260200160008152602001600081526020016000151581526020016000151581525090565b6000813590506118b881612663565b92915050565b6000815190506118cd8161267a565b92915050565b6000813590506118e281612691565b92915050565b6000813590506118f7816126a8565b92915050565b60008151905061190c816126a8565b92915050565b60006020828403121561192457600080fd5b6000611932848285016118a9565b91505092915050565b6000806040838503121561194e57600080fd5b600061195c858286016118a9565b925050602061196d858286016118a9565b9150509250929050565b6000806040838503121561198a57600080fd5b6000611998858286016118a9565b92505060206119a9858286016118e8565b9150509250929050565b6000602082840312156119c557600080fd5b60006119d3848285016118be565b91505092915050565b600080600080608085870312156119f257600080fd5b6000611a00878288016118d3565b9450506020611a11878288016118a9565b9350506040611a22878288016118e8565b9250506060611a33878288016118e8565b91505092959194509250565b600060208284031215611a5157600080fd5b6000611a5f848285016118e8565b91505092915050565b600060208284031215611a7a57600080fd5b6000611a88848285016118fd565b91505092915050565b6000611a9d8383611e0d565b60208301905092915050565b611ab281612256565b82525050565b611ac181612256565b82525050565b6000611ad282612171565b611adc818561219f565b9350611ae783612161565b8060005b83811015611b18578151611aff8882611a91565b9750611b0a83612192565b925050600181019050611aeb565b5085935050505092915050565b611b2e81612268565b82525050565b611b3d81612268565b82525050565b6000611b4e8261217c565b611b5881856121b0565b9350611b688185602086016122d4565b80840191505092915050565b611b7d816122b0565b82525050565b611b8c816122b0565b82525050565b6000611b9d82612187565b611ba781856121bb565b9350611bb78185602086016122d4565b611bc08161237f565b840191505092915050565b6000611bd8601d836121bb565b9150611be382612390565b602082019050919050565b6000611bfb6026836121bb565b9150611c06826123b9565b604082019050919050565b6000611c1e6018836121bb565b9150611c2982612408565b602082019050919050565b6000611c41601d836121bb565b9150611c4c82612431565b602082019050919050565b6000611c646026836121bb565b9150611c6f8261245a565b604082019050919050565b6000611c876015836121bb565b9150611c92826124a9565b602082019050919050565b6000611caa6020836121bb565b9150611cb5826124d2565b602082019050919050565b6000611ccd6026836121bb565b9150611cd8826124fb565b604082019050919050565b6000611cf0601d836121bb565b9150611cfb8261254a565b602082019050919050565b6000611d136023836121bb565b9150611d1e82612573565b604082019050919050565b6000611d36601b836121bb565b9150611d41826125c2565b602082019050919050565b6000611d596015836121bb565b9150611d64826125eb565b602082019050919050565b6000611d7c602a836121bb565b9150611d8782612614565b604082019050919050565b60c082016000820151611da86000850182611b74565b506020820151611dbb6020850182611aa9565b506040820151611dce6040850182611e0d565b506060820151611de16060850182611e0d565b506080820151611df46080850182611b25565b5060a0820151611e0760a0850182611b25565b50505050565b611e16816122a6565b82525050565b611e25816122a6565b82525050565b6000611e378284611b43565b915081905092915050565b6000602082019050611e576000830184611ab8565b92915050565b6000604082019050611e726000830185611ab8565b611e7f6020830184611ab8565b9392505050565b6000606082019050611e9b6000830186611ab8565b611ea86020830185611ab8565b611eb56040830184611e1c565b949350505050565b6000604082019050611ed26000830185611ab8565b611edf6020830184611e1c565b9392505050565b60006020820190508181036000830152611f008184611ac7565b905092915050565b600060c082019050611f1d6000830189611b83565b611f2a6020830188611ab8565b611f376040830187611e1c565b611f446060830186611e1c565b611f516080830185611b34565b611f5e60a0830184611b34565b979650505050505050565b60006020820190508181036000830152611f838184611b92565b905092915050565b60006020820190508181036000830152611fa481611bcb565b9050919050565b60006020820190508181036000830152611fc481611bee565b9050919050565b60006020820190508181036000830152611fe481611c11565b9050919050565b6000602082019050818103600083015261200481611c34565b9050919050565b6000602082019050818103600083015261202481611c57565b9050919050565b6000602082019050818103600083015261204481611c7a565b9050919050565b6000602082019050818103600083015261206481611c9d565b9050919050565b6000602082019050818103600083015261208481611cc0565b9050919050565b600060208201905081810360008301526120a481611ce3565b9050919050565b600060208201905081810360008301526120c481611d06565b9050919050565b600060208201905081810360008301526120e481611d29565b9050919050565b6000602082019050818103600083015261210481611d4c565b9050919050565b6000602082019050818103600083015261212481611d6f565b9050919050565b600060c0820190506121406000830184611d92565b92915050565b600060208201905061215b6000830184611e1c565b92915050565b6000819050602082019050919050565b600081519050919050565b600081519050919050565b600081519050919050565b6000602082019050919050565b600082825260208201905092915050565b600081905092915050565b600082825260208201905092915050565b60006121d7826122a6565b91506121e2836122a6565b9250827fffffffffffffffffffffffffffffffffffffffffffffffffffffffffffffffff0382111561221757612216612350565b5b828201905092915050565b600061222d826122a6565b9150612238836122a6565b92508282101561224b5761224a612350565b5b828203905092915050565b600061226182612286565b9050919050565b60008115159050919050565b600061227f82612256565b9050919050565b600073ffffffffffffffffffffffffffffffffffffffff82169050919050565b6000819050919050565b60006122bb826122c2565b9050919050565b60006122cd82612286565b9050919050565b60005b838110156122f25780820151818401526020810190506122d7565b83811115612301576000848401525b50505050565b6000612312826122a6565b91507fffffffffffffffffffffffffffffffffffffffffffffffffffffffffffffffff82141561234557612344612350565b5b600182019050919050565b7f4e487b7100000000000000000000000000000000000000000000000000000000600052601160045260246000fd5b6000601f19601f8301169050919050565b7f546f6b656e7320617265206e6f7420796574206465706f736974656421000000600082015250565b7f4f776e61626c653a206e6577206f776e657220697320746865207a65726f206160008201527f6464726573730000000000000000000000000000000000000000000000000000602082015250565b7f546f6b656e7320617265207374696c6c206c6f636b6564210000000000000000600082015250565b7f546f6b656e732061726520616c72656164792077697468647261776e21000000600082015250565b7f416464726573733a20696e73756666696369656e742062616c616e636520666f60008201527f722063616c6c0000000000000000000000000000000000000000000000000000602082015250565b7f417070726f766520746f6b656e73206669727374210000000000000000000000600082015250565b7f4f776e61626c653a2063616c6c6572206973206e6f7420746865206f776e6572600082015250565b7f556e6c6f636b2074696d657374616d70206973206e6f7420696e20746865206660008201527f7574757265210000000000000000000000000000000000000000000000000000602082015250565b7f416464726573733a2063616c6c20746f206e6f6e2d636f6e7472616374000000600082015250565b7f556e6c6f636b2074696d657374616d70206973206e6f7420696e207365636f6e60008201527f6473210000000000000000000000000000000000000000000000000000000000602082015250565b7f596f7520617265206e6f74207468652077697468647261776572210000000000600082015250565b7f546f6b656e20616d6f756e7420746f6f206c6f77210000000000000000000000600082015250565b7f5361666545524332303a204552433230206f7065726174696f6e20646964206e60008201527f6f74207375636365656400000000000000000000000000000000000000000000602082015250565b61266c81612256565b811461267757600080fd5b50565b61268381612268565b811461268e57600080fd5b50565b61269a81612274565b81146126a557600080fd5b50565b6126b1816122a6565b81146126bc57600080fd5b5056fea2646970667358221220394a3fb5413f0b58a23a0e4a072d711aebe3aff1959f38fb44d4755e8b99ca4c64736f6c63430008030033",
  "immutableReferences": {},
  "source": "// SPDX-License-Identifier: MIT\n\npragma solidity ^0.8.0;\n\nimport \"@openzeppelin/contracts/token/ERC20/IERC20.sol\";\nimport \"@openzeppelin/contracts/token/ERC20/utils/SafeERC20.sol\";\nimport \"@openzeppelin/contracts/utils/math/SafeMath.sol\";\nimport \"@openzeppelin/contracts/access/Ownable.sol\";\n\ncontract Vault is Ownable {\n    using SafeMath for uint256;\n    using SafeERC20 for IERC20;\n\n    struct Items {\n        IERC20 token;\n        address withdrawer;\n        uint256 amount;\n        uint256 unlockTimestamp;\n        bool withdrawn;\n        bool deposited;\n    }\n    \n    uint256 public depositsCount;\n    mapping (address => uint256[]) public depositsByTokenAddress;\n    mapping (address => uint256[]) public depositsByWithdrawers;\n    mapping (uint256 => Items) public lockedToken;\n    mapping (address => mapping(address => uint256)) public walletTokenBalance;\n    \n    address public helpiMarketingAddress;\n    \n    event Withdraw(address withdrawer, uint256 amount);\n    \n    constructor() {\n      \n    }\n    \n    function lockTokens(IERC20 _token, address _withdrawer, uint256 _amount, uint256 _unlockTimestamp) external returns (uint256 _id) {\n        require(_amount > 500, 'Token amount too low!');\n        require(_unlockTimestamp < 10000000000, 'Unlock timestamp is not in seconds!');\n        require(_unlockTimestamp > block.timestamp, 'Unlock timestamp is not in the future!');\n        require(_token.allowance(msg.sender, address(this)) >= _amount, 'Approve tokens first!');\n        _token.safeTransferFrom(msg.sender, address(this), _amount);\n        \n        walletTokenBalance[address(_token)][msg.sender] = walletTokenBalance[address(_token)][msg.sender].add(_amount);\n        \n        _id = ++depositsCount;\n        lockedToken[_id].token = _token;\n        lockedToken[_id].withdrawer = _withdrawer;\n        lockedToken[_id].amount = _amount;\n        lockedToken[_id].unlockTimestamp = _unlockTimestamp;\n        lockedToken[_id].withdrawn = false;\n        lockedToken[_id].deposited = true;\n        \n        depositsByTokenAddress[address(_token)].push(_id);\n        depositsByWithdrawers[_withdrawer].push(_id);\n        return _id;\n    }\n    \n    function withdrawTokens(uint256 _id) external {\n        require(block.timestamp >= lockedToken[_id].unlockTimestamp, 'Tokens are still locked!');\n        require(msg.sender == lockedToken[_id].withdrawer, 'You are not the withdrawer!');\n        require(lockedToken[_id].deposited, 'Tokens are not yet deposited!');\n        require(!lockedToken[_id].withdrawn, 'Tokens are already withdrawn!');\n        \n        lockedToken[_id].withdrawn = true;\n        \n        walletTokenBalance[address(lockedToken[_id].token)][msg.sender] = walletTokenBalance[address(lockedToken[_id].token)][msg.sender].sub(lockedToken[_id].amount);\n        \n        emit Withdraw(msg.sender, lockedToken[_id].amount);\n        lockedToken[_id].token.safeTransfer(msg.sender, lockedToken[_id].amount);\n    }\n    \n    function getDepositsByTokenAddress(address _id) view external returns (uint256[] memory) {\n        return depositsByTokenAddress[_id];\n    }\n\n    function getDepositsByWithdrawer(address _token, address _withdrawer) view external returns (uint256) {\n        return walletTokenBalance[_token][_withdrawer];\n    }\n   \n    function getVaultsByWithdrawer(address _withdrawer) view external returns (uint256[] memory) {\n        return depositsByWithdrawers[_withdrawer];\n    }\n\n    function getVaultById(uint256 _id) view external returns (Items memory) {\n        return lockedToken[_id];\n    }\n\n    function getTokenTotalLockedBalance(address _token) view external returns (uint256) {\n       return IERC20(_token).balanceOf(address(this));\n    }\n}",
  "sourcePath": "/home/syta/Documents/repos/crypto/vault-dapp/contracts/Vault.sol",
  "compiler": {
    "name": "solc",
    "version": "0.8.3+commit.8d00100c.Emscripten.clang"
  },
  "schemaVersion": "3.3.4",
  "updatedAt": "2021-04-25T20:14:50.683Z",
  "networkType": "ethereum",
  "devdoc": {
    "kind": "dev",
    "methods": {
      "owner()": {
        "details": "Returns the address of the current owner."
      },
      "renounceOwnership()": {
        "details": "Leaves the contract without owner. It will not be possible to call `onlyOwner` functions anymore. Can only be called by the current owner. NOTE: Renouncing ownership will leave the contract without an owner, thereby removing any functionality that is only available to the owner."
      },
      "transferOwnership(address)": {
        "details": "Transfers ownership of the contract to a new account (`newOwner`). Can only be called by the current owner."
      }
    },
    "version": 1
  },
  "userdoc": {
    "kind": "user",
    "methods": {},
    "version": 1
  }
}