{
  "contractName": "Vault",
  "abi": [
    {
      "inputs": [],
      "stateMutability": "nonpayable",
      "type": "constructor"
    },
    {
      "anonymous": false,
      "inputs": [
        {
          "indexed": true,
          "internalType": "address",
          "name": "previousOwner",
          "type": "address"
        },
        {
          "indexed": true,
          "internalType": "address",
          "name": "newOwner",
          "type": "address"
        }
      ],
      "name": "OwnershipTransferred",
      "type": "event"
    },
    {
      "anonymous": false,
      "inputs": [
        {
          "indexed": false,
          "internalType": "address",
          "name": "withdrawer",
          "type": "address"
        },
        {
          "indexed": false,
          "internalType": "uint256",
          "name": "amount",
          "type": "uint256"
        }
      ],
      "name": "Withdraw",
      "type": "event"
    },
    {
      "inputs": [
        {
          "internalType": "address",
          "name": "",
          "type": "address"
        },
        {
          "internalType": "uint256",
          "name": "",
          "type": "uint256"
        }
      ],
      "name": "depositsByTokenAddress",
      "outputs": [
        {
          "internalType": "uint256",
          "name": "",
          "type": "uint256"
        }
      ],
      "stateMutability": "view",
      "type": "function",
      "constant": true
    },
    {
      "inputs": [],
      "name": "depositsCount",
      "outputs": [
        {
          "internalType": "uint256",
          "name": "",
          "type": "uint256"
        }
      ],
      "stateMutability": "view",
      "type": "function",
      "constant": true
    },
    {
      "inputs": [],
      "name": "helpiMarketingAddress",
      "outputs": [
        {
          "internalType": "address",
          "name": "",
          "type": "address"
        }
      ],
      "stateMutability": "view",
      "type": "function",
      "constant": true
    },
    {
      "inputs": [
        {
          "internalType": "uint256",
          "name": "",
          "type": "uint256"
        }
      ],
      "name": "lockedToken",
      "outputs": [
        {
          "internalType": "contract IERC20",
          "name": "token",
          "type": "address"
        },
        {
          "internalType": "address",
          "name": "withdrawer",
          "type": "address"
        },
        {
          "internalType": "uint256",
          "name": "amount",
          "type": "uint256"
        },
        {
          "internalType": "uint256",
          "name": "unlockTimestamp",
          "type": "uint256"
        },
        {
          "internalType": "bool",
          "name": "withdrawn",
          "type": "bool"
        },
        {
          "internalType": "bool",
          "name": "deposited",
          "type": "bool"
        }
      ],
      "stateMutability": "view",
      "type": "function",
      "constant": true
    },
    {
      "inputs": [],
      "name": "owner",
      "outputs": [
        {
          "internalType": "address",
          "name": "",
          "type": "address"
        }
      ],
      "stateMutability": "view",
      "type": "function",
      "constant": true
    },
    {
      "inputs": [],
      "name": "renounceOwnership",
      "outputs": [],
      "stateMutability": "nonpayable",
      "type": "function"
    },
    {
      "inputs": [
        {
          "internalType": "address",
          "name": "newOwner",
          "type": "address"
        }
      ],
      "name": "transferOwnership",
      "outputs": [],
      "stateMutability": "nonpayable",
      "type": "function"
    },
    {
      "inputs": [
        {
          "internalType": "address",
          "name": "",
          "type": "address"
        },
        {
          "internalType": "address",
          "name": "",
          "type": "address"
        }
      ],
      "name": "walletTokenBalance",
      "outputs": [
        {
          "internalType": "uint256",
          "name": "",
          "type": "uint256"
        }
      ],
      "stateMutability": "view",
      "type": "function",
      "constant": true
    },
    {
      "inputs": [
        {
          "internalType": "contract IERC20",
          "name": "_token",
          "type": "address"
        },
        {
          "internalType": "address",
          "name": "_withdrawer",
          "type": "address"
        },
        {
          "internalType": "uint256",
          "name": "_amount",
          "type": "uint256"
        },
        {
          "internalType": "uint256",
          "name": "_unlockTimestamp",
          "type": "uint256"
        }
      ],
      "name": "lockTokens",
      "outputs": [
        {
          "internalType": "uint256",
          "name": "_id",
          "type": "uint256"
        }
      ],
      "stateMutability": "nonpayable",
      "type": "function"
    },
    {
      "inputs": [
        {
          "internalType": "uint256",
          "name": "_id",
          "type": "uint256"
        }
      ],
      "name": "withdrawTokens",
      "outputs": [],
      "stateMutability": "nonpayable",
      "type": "function"
    },
    {
      "inputs": [
        {
          "internalType": "address",
          "name": "_token",
          "type": "address"
        }
      ],
      "name": "getDepositsByTokenAddress",
      "outputs": [
        {
          "internalType": "uint256[]",
          "name": "",
          "type": "uint256[]"
        }
      ],
      "stateMutability": "view",
      "type": "function",
      "constant": true
    },
    {
      "inputs": [
        {
          "internalType": "address",
          "name": "_token",
          "type": "address"
        }
      ],
      "name": "getTokenTotalLockedBalance",
      "outputs": [
        {
          "internalType": "uint256",
          "name": "",
          "type": "uint256"
        }
      ],
      "stateMutability": "view",
      "type": "function",
      "constant": true
    }
  ],
  "bytecode": "0x608060405234801561001057600080fd5b5060006100216100c460201b60201c565b9050806000806101000a81548173ffffffffffffffffffffffffffffffffffffffff021916908373ffffffffffffffffffffffffffffffffffffffff1602179055508073ffffffffffffffffffffffffffffffffffffffff16600073ffffffffffffffffffffffffffffffffffffffff167f8be0079c531659141344cd1fd0a4f28419497f9722a3daafe3b4186f6b6457e060405160405180910390a3506100cc565b600033905090565b61216a806100db6000396000f3fe608060405234801561001057600080fd5b50600436106100b45760003560e01c806386f65a221161007157806386f65a221461017b5780638da5cb5b146101ab578063b78a1532146101c9578063b9e7df1c146101f9578063bb941cff14610229578063f2fde38b1461025e576100b4565b8063315a095d146100b95780633fd97b9b146100d55780634506e93514610105578063715018a61461012357806374e7ff9e1461012d5780637d533c1e1461014b575b600080fd5b6100d360048036038101906100ce91906115cd565b61027a565b005b6100ef60048036038101906100ea9190611505565b6106c7565b6040516100fc9190611c11565b60405180910390f35b61010d6106f8565b60405161011a9190611c11565b60405180910390f35b61012b6106fe565b005b610135610838565b6040516101429190611928565b60405180910390f35b6101656004803603810190610160919061156a565b61085e565b6040516101729190611c11565b60405180910390f35b610195600480360381019061019091906114a0565b610ce7565b6040516101a291906119cc565b60405180910390f35b6101b3610d7e565b6040516101c09190611928565b60405180910390f35b6101e360048036038101906101de91906114a0565b610da7565b6040516101f09190611c11565b60405180910390f35b610213600480360381019061020e91906114c9565b610e39565b6040516102209190611c11565b60405180910390f35b610243600480360381019061023e91906115cd565b610e5e565b604051610255969594939291906119ee565b60405180910390f35b610278600480360381019061027391906114a0565b610ef4565b005b60036000828152602001908152602001600020600301544210156102d3576040517f08c379a00000000000000000000000000000000000000000000000000000000081526004016102ca90611ab1565b60405180910390fd5b6003600082815260200190815260200160002060010160009054906101000a900473ffffffffffffffffffffffffffffffffffffffff1673ffffffffffffffffffffffffffffffffffffffff163373ffffffffffffffffffffffffffffffffffffffff1614610377576040517f08c379a000000000000000000000000000000000000000000000000000000000815260040161036e90611bb1565b60405180910390fd5b6003600082815260200190815260200160002060040160019054906101000a900460ff166103da576040517f08c379a00000000000000000000000000000000000000000000000000000000081526004016103d190611a71565b60405180910390fd5b6003600082815260200190815260200160002060040160009054906101000a900460ff161561043e576040517f08c379a000000000000000000000000000000000000000000000000000000000815260040161043590611ad1565b60405180910390fd5b60016003600083815260200190815260200160002060040160006101000a81548160ff0219169083151502179055506105486003600083815260200190815260200160002060020154600460006003600086815260200190815260200160002060000160009054906101000a900473ffffffffffffffffffffffffffffffffffffffff1673ffffffffffffffffffffffffffffffffffffffff1673ffffffffffffffffffffffffffffffffffffffff16815260200190815260200160002060003373ffffffffffffffffffffffffffffffffffffffff1673ffffffffffffffffffffffffffffffffffffffff1681526020019081526020016000205461109d90919063ffffffff16565b600460006003600085815260200190815260200160002060000160009054906101000a900473ffffffffffffffffffffffffffffffffffffffff1673ffffffffffffffffffffffffffffffffffffffff1673ffffffffffffffffffffffffffffffffffffffff16815260200190815260200160002060003373ffffffffffffffffffffffffffffffffffffffff1673ffffffffffffffffffffffffffffffffffffffff168152602001908152602001600020819055507f884edad9ce6fa2440d8a54cc123490eb96d2768479d49ff9c7366125a94243643360036000848152602001908152602001600020600201546040516106459291906119a3565b60405180910390a16106c43360036000848152602001908152602001600020600201546003600085815260200190815260200160002060000160009054906101000a900473ffffffffffffffffffffffffffffffffffffffff1673ffffffffffffffffffffffffffffffffffffffff166110b39092919063ffffffff16565b50565b600260205281600052604060002081815481106106e357600080fd5b90600052602060002001600091509150505481565b60015481565b610706611139565b73ffffffffffffffffffffffffffffffffffffffff16610724610d7e565b73ffffffffffffffffffffffffffffffffffffffff161461077a576040517f08c379a000000000000000000000000000000000000000000000000000000000815260040161077190611b31565b60405180910390fd5b600073ffffffffffffffffffffffffffffffffffffffff1660008054906101000a900473ffffffffffffffffffffffffffffffffffffffff1673ffffffffffffffffffffffffffffffffffffffff167f8be0079c531659141344cd1fd0a4f28419497f9722a3daafe3b4186f6b6457e060405160405180910390a360008060006101000a81548173ffffffffffffffffffffffffffffffffffffffff021916908373ffffffffffffffffffffffffffffffffffffffff160217905550565b600560009054906101000a900473ffffffffffffffffffffffffffffffffffffffff1681565b60006101f483116108a4576040517f08c379a000000000000000000000000000000000000000000000000000000000815260040161089b90611bd1565b60405180910390fd5b6402540be40082106108eb576040517f08c379a00000000000000000000000000000000000000000000000000000000081526004016108e290611b91565b60405180910390fd5b42821161092d576040517f08c379a000000000000000000000000000000000000000000000000000000000815260040161092490611b51565b60405180910390fd5b828573ffffffffffffffffffffffffffffffffffffffff1663dd62ed3e33306040518363ffffffff1660e01b8152600401610969929190611943565b60206040518083038186803b15801561098157600080fd5b505afa158015610995573d6000803e3d6000fd5b505050506040513d601f19601f820116820180604052508101906109b991906115f6565b10156109fa576040517f08c379a00000000000000000000000000000000000000000000000000000000081526004016109f190611b11565b60405180910390fd5b610a273330858873ffffffffffffffffffffffffffffffffffffffff16611141909392919063ffffffff16565b600460008673ffffffffffffffffffffffffffffffffffffffff1673ffffffffffffffffffffffffffffffffffffffff16815260200190815260200160002060003373ffffffffffffffffffffffffffffffffffffffff1673ffffffffffffffffffffffffffffffffffffffff16815260200190815260200160002054600460008773ffffffffffffffffffffffffffffffffffffffff1673ffffffffffffffffffffffffffffffffffffffff16815260200190815260200160002060003373ffffffffffffffffffffffffffffffffffffffff1673ffffffffffffffffffffffffffffffffffffffff16815260200190815260200160002081905550600160008154610b3390611d7c565b9190508190559050846003600083815260200190815260200160002060000160006101000a81548173ffffffffffffffffffffffffffffffffffffffff021916908373ffffffffffffffffffffffffffffffffffffffff160217905550836003600083815260200190815260200160002060010160006101000a81548173ffffffffffffffffffffffffffffffffffffffff021916908373ffffffffffffffffffffffffffffffffffffffff16021790555082600360008381526020019081526020016000206002018190555081600360008381526020019081526020016000206003018190555060006003600083815260200190815260200160002060040160006101000a81548160ff02191690831515021790555060016003600083815260200190815260200160002060040160016101000a81548160ff021916908315150217905550600260008673ffffffffffffffffffffffffffffffffffffffff1673ffffffffffffffffffffffffffffffffffffffff168152602001908152602001600020819080600181540180825580915050600190039060005260206000200160009091909190915055949350505050565b6060600260008373ffffffffffffffffffffffffffffffffffffffff1673ffffffffffffffffffffffffffffffffffffffff168152602001908152602001600020805480602002602001604051908101604052809291908181526020018280548015610d7257602002820191906000526020600020905b815481526020019060010190808311610d5e575b50505050509050919050565b60008060009054906101000a900473ffffffffffffffffffffffffffffffffffffffff16905090565b60008173ffffffffffffffffffffffffffffffffffffffff166370a08231306040518263ffffffff1660e01b8152600401610de29190611928565b60206040518083038186803b158015610dfa57600080fd5b505afa158015610e0e573d6000803e3d6000fd5b505050506040513d601f19601f82011682018060405250810190610e3291906115f6565b9050919050565b6004602052816000526040600020602052806000526040600020600091509150505481565b60036020528060005260406000206000915090508060000160009054906101000a900473ffffffffffffffffffffffffffffffffffffffff16908060010160009054906101000a900473ffffffffffffffffffffffffffffffffffffffff16908060020154908060030154908060040160009054906101000a900460ff16908060040160019054906101000a900460ff16905086565b610efc611139565b73ffffffffffffffffffffffffffffffffffffffff16610f1a610d7e565b73ffffffffffffffffffffffffffffffffffffffff1614610f70576040517f08c379a0000000000000000000000000000000000000000000000000000000008152600401610f6790611b31565b60405180910390fd5b600073ffffffffffffffffffffffffffffffffffffffff168173ffffffffffffffffffffffffffffffffffffffff161415610fe0576040517f08c379a0000000000000000000000000000000000000000000000000000000008152600401610fd790611a91565b60405180910390fd5b8073ffffffffffffffffffffffffffffffffffffffff1660008054906101000a900473ffffffffffffffffffffffffffffffffffffffff1673ffffffffffffffffffffffffffffffffffffffff167f8be0079c531659141344cd1fd0a4f28419497f9722a3daafe3b4186f6b6457e060405160405180910390a3806000806101000a81548173ffffffffffffffffffffffffffffffffffffffff021916908373ffffffffffffffffffffffffffffffffffffffff16021790555050565b600081836110ab9190611c97565b905092915050565b6111348363a9059cbb60e01b84846040516024016110d29291906119a3565b604051602081830303815290604052907bffffffffffffffffffffffffffffffffffffffffffffffffffffffff19166020820180517bffffffffffffffffffffffffffffffffffffffffffffffffffffffff83818316178352505050506111ca565b505050565b600033905090565b6111c4846323b872dd60e01b8585856040516024016111629392919061196c565b604051602081830303815290604052907bffffffffffffffffffffffffffffffffffffffffffffffffffffffff19166020820180517bffffffffffffffffffffffffffffffffffffffffffffffffffffffff83818316178352505050506111ca565b50505050565b600061122c826040518060400160405280602081526020017f5361666545524332303a206c6f772d6c6576656c2063616c6c206661696c65648152508573ffffffffffffffffffffffffffffffffffffffff166112919092919063ffffffff16565b905060008151111561128c578080602001905181019061124c9190611541565b61128b576040517f08c379a000000000000000000000000000000000000000000000000000000000815260040161128290611bf1565b60405180910390fd5b5b505050565b60606112a084846000856112a9565b90509392505050565b6060824710156112ee576040517f08c379a00000000000000000000000000000000000000000000000000000000081526004016112e590611af1565b60405180910390fd5b6112f7856113bd565b611336576040517f08c379a000000000000000000000000000000000000000000000000000000000815260040161132d90611b71565b60405180910390fd5b6000808673ffffffffffffffffffffffffffffffffffffffff16858760405161135f9190611911565b60006040518083038185875af1925050503d806000811461139c576040519150601f19603f3d011682016040523d82523d6000602084013e6113a1565b606091505b50915091506113b18282866113d0565b92505050949350505050565b600080823b905060008111915050919050565b606083156113e057829050611430565b6000835111156113f35782518084602001fd5b816040517f08c379a00000000000000000000000000000000000000000000000000000000081526004016114279190611a4f565b60405180910390fd5b9392505050565b600081359050611446816120d8565b92915050565b60008151905061145b816120ef565b92915050565b60008135905061147081612106565b92915050565b6000813590506114858161211d565b92915050565b60008151905061149a8161211d565b92915050565b6000602082840312156114b257600080fd5b60006114c084828501611437565b91505092915050565b600080604083850312156114dc57600080fd5b60006114ea85828601611437565b92505060206114fb85828601611437565b9150509250929050565b6000806040838503121561151857600080fd5b600061152685828601611437565b925050602061153785828601611476565b9150509250929050565b60006020828403121561155357600080fd5b60006115618482850161144c565b91505092915050565b6000806000806080858703121561158057600080fd5b600061158e87828801611461565b945050602061159f87828801611437565b93505060406115b087828801611476565b92505060606115c187828801611476565b91505092959194509250565b6000602082840312156115df57600080fd5b60006115ed84828501611476565b91505092915050565b60006020828403121561160857600080fd5b60006116168482850161148b565b91505092915050565b600061162b83836118f3565b60208301905092915050565b61164081611ccb565b82525050565b600061165182611c3c565b61165b8185611c6a565b935061166683611c2c565b8060005b8381101561169757815161167e888261161f565b975061168983611c5d565b92505060018101905061166a565b5085935050505092915050565b6116ad81611cdd565b82525050565b60006116be82611c47565b6116c88185611c7b565b93506116d8818560208601611d49565b80840191505092915050565b6116ed81611d25565b82525050565b60006116fe82611c52565b6117088185611c86565b9350611718818560208601611d49565b61172181611df4565b840191505092915050565b6000611739601d83611c86565b915061174482611e05565b602082019050919050565b600061175c602683611c86565b915061176782611e2e565b604082019050919050565b600061177f601883611c86565b915061178a82611e7d565b602082019050919050565b60006117a2601d83611c86565b91506117ad82611ea6565b602082019050919050565b60006117c5602683611c86565b91506117d082611ecf565b604082019050919050565b60006117e8601583611c86565b91506117f382611f1e565b602082019050919050565b600061180b602083611c86565b915061181682611f47565b602082019050919050565b600061182e602683611c86565b915061183982611f70565b604082019050919050565b6000611851601d83611c86565b915061185c82611fbf565b602082019050919050565b6000611874602383611c86565b915061187f82611fe8565b604082019050919050565b6000611897601b83611c86565b91506118a282612037565b602082019050919050565b60006118ba601583611c86565b91506118c582612060565b602082019050919050565b60006118dd602a83611c86565b91506118e882612089565b604082019050919050565b6118fc81611d1b565b82525050565b61190b81611d1b565b82525050565b600061191d82846116b3565b915081905092915050565b600060208201905061193d6000830184611637565b92915050565b60006040820190506119586000830185611637565b6119656020830184611637565b9392505050565b60006060820190506119816000830186611637565b61198e6020830185611637565b61199b6040830184611902565b949350505050565b60006040820190506119b86000830185611637565b6119c56020830184611902565b9392505050565b600060208201905081810360008301526119e68184611646565b905092915050565b600060c082019050611a0360008301896116e4565b611a106020830188611637565b611a1d6040830187611902565b611a2a6060830186611902565b611a3760808301856116a4565b611a4460a08301846116a4565b979650505050505050565b60006020820190508181036000830152611a6981846116f3565b905092915050565b60006020820190508181036000830152611a8a8161172c565b9050919050565b60006020820190508181036000830152611aaa8161174f565b9050919050565b60006020820190508181036000830152611aca81611772565b9050919050565b60006020820190508181036000830152611aea81611795565b9050919050565b60006020820190508181036000830152611b0a816117b8565b9050919050565b60006020820190508181036000830152611b2a816117db565b9050919050565b60006020820190508181036000830152611b4a816117fe565b9050919050565b60006020820190508181036000830152611b6a81611821565b9050919050565b60006020820190508181036000830152611b8a81611844565b9050919050565b60006020820190508181036000830152611baa81611867565b9050919050565b60006020820190508181036000830152611bca8161188a565b9050919050565b60006020820190508181036000830152611bea816118ad565b9050919050565b60006020820190508181036000830152611c0a816118d0565b9050919050565b6000602082019050611c266000830184611902565b92915050565b6000819050602082019050919050565b600081519050919050565b600081519050919050565b600081519050919050565b6000602082019050919050565b600082825260208201905092915050565b600081905092915050565b600082825260208201905092915050565b6000611ca282611d1b565b9150611cad83611d1b565b925082821015611cc057611cbf611dc5565b5b828203905092915050565b6000611cd682611cfb565b9050919050565b60008115159050919050565b6000611cf482611ccb565b9050919050565b600073ffffffffffffffffffffffffffffffffffffffff82169050919050565b6000819050919050565b6000611d3082611d37565b9050919050565b6000611d4282611cfb565b9050919050565b60005b83811015611d67578082015181840152602081019050611d4c565b83811115611d76576000848401525b50505050565b6000611d8782611d1b565b91507fffffffffffffffffffffffffffffffffffffffffffffffffffffffffffffffff821415611dba57611db9611dc5565b5b600182019050919050565b7f4e487b7100000000000000000000000000000000000000000000000000000000600052601160045260246000fd5b6000601f19601f8301169050919050565b7f546f6b656e7320617265206e6f7420796574206465706f736974656421000000600082015250565b7f4f776e61626c653a206e6577206f776e657220697320746865207a65726f206160008201527f6464726573730000000000000000000000000000000000000000000000000000602082015250565b7f546f6b656e7320617265207374696c6c206c6f636b6564210000000000000000600082015250565b7f546f6b656e732061726520616c72656164792077697468647261776e21000000600082015250565b7f416464726573733a20696e73756666696369656e742062616c616e636520666f60008201527f722063616c6c0000000000000000000000000000000000000000000000000000602082015250565b7f417070726f766520746f6b656e73206669727374210000000000000000000000600082015250565b7f4f776e61626c653a2063616c6c6572206973206e6f7420746865206f776e6572600082015250565b7f556e6c6f636b2074696d657374616d70206973206e6f7420696e20746865206660008201527f7574757265210000000000000000000000000000000000000000000000000000602082015250565b7f416464726573733a2063616c6c20746f206e6f6e2d636f6e7472616374000000600082015250565b7f556e6c6f636b2074696d657374616d70206973206e6f7420696e207365636f6e60008201527f6473210000000000000000000000000000000000000000000000000000000000602082015250565b7f596f7520617265206e6f74207468652077697468647261776572210000000000600082015250565b7f546f6b656e20616d6f756e7420746f6f206c6f77210000000000000000000000600082015250565b7f5361666545524332303a204552433230206f7065726174696f6e20646964206e60008201527f6f74207375636365656400000000000000000000000000000000000000000000602082015250565b6120e181611ccb565b81146120ec57600080fd5b50565b6120f881611cdd565b811461210357600080fd5b50565b61210f81611ce9565b811461211a57600080fd5b50565b61212681611d1b565b811461213157600080fd5b5056fea2646970667358221220e733c2192d2fedcf73b303ff2002b7b1bdd9f00572ca0dc2301669185bc5d3f664736f6c63430008030033",
  "immutableReferences": {},
  "source": "// SPDX-License-Identifier: MIT\n\npragma solidity ^0.8.0;\n\nimport \"@openzeppelin/contracts/token/ERC20/IERC20.sol\";\nimport \"@openzeppelin/contracts/token/ERC20/utils/SafeERC20.sol\";\nimport \"@openzeppelin/contracts/utils/math/SafeMath.sol\";\nimport \"@openzeppelin/contracts/access/Ownable.sol\";\n\ncontract Vault is Ownable{\n    using SafeMath for uint256;\n    using SafeERC20 for IERC20;\n\n    struct Items {\n        IERC20 token;\n        address withdrawer;\n        uint256 amount;\n        uint256 unlockTimestamp;\n        bool withdrawn;\n        bool deposited;\n    }\n    \n    uint256 public depositsCount;\n    mapping (address => uint256[]) public depositsByTokenAddress;\n    mapping (uint256 => Items) public lockedToken;\n    mapping (address => mapping(address => uint256)) public walletTokenBalance;\n    \n    address public helpiMarketingAddress;\n    \n    event Withdraw(address withdrawer, uint256 amount);\n    \n    constructor() {\n      \n    }\n    \n    function lockTokens(IERC20 _token, address _withdrawer, uint256 _amount, uint256 _unlockTimestamp) external returns (uint256 _id) {\n        require(_amount > 500, 'Token amount too low!');\n        require(_unlockTimestamp < 10000000000, 'Unlock timestamp is not in seconds!');\n        require(_unlockTimestamp > block.timestamp, 'Unlock timestamp is not in the future!');\n        require(_token.allowance(msg.sender, address(this)) >= _amount, 'Approve tokens first!');\n        _token.safeTransferFrom(msg.sender, address(this), _amount);\n        \n        walletTokenBalance[address(_token)][msg.sender] = walletTokenBalance[address(_token)][msg.sender];\n        \n        _id = ++depositsCount;\n        lockedToken[_id].token = _token;\n        lockedToken[_id].withdrawer = _withdrawer;\n        lockedToken[_id].amount = _amount;\n        lockedToken[_id].unlockTimestamp = _unlockTimestamp;\n        lockedToken[_id].withdrawn = false;\n        lockedToken[_id].deposited = true;\n        \n        depositsByTokenAddress[address(_token)].push(_id);\n    }\n    \n    function withdrawTokens(uint256 _id) external {\n        require(block.timestamp >= lockedToken[_id].unlockTimestamp, 'Tokens are still locked!');\n        require(msg.sender == lockedToken[_id].withdrawer, 'You are not the withdrawer!');\n        require(lockedToken[_id].deposited, 'Tokens are not yet deposited!');\n        require(!lockedToken[_id].withdrawn, 'Tokens are already withdrawn!');\n        \n        lockedToken[_id].withdrawn = true;\n        \n        walletTokenBalance[address(lockedToken[_id].token)][msg.sender] = walletTokenBalance[address(lockedToken[_id].token)][msg.sender].sub(lockedToken[_id].amount);\n        \n        emit Withdraw(msg.sender, lockedToken[_id].amount);\n        lockedToken[_id].token.safeTransfer(msg.sender, lockedToken[_id].amount);\n    }\n    \n    function getDepositsByTokenAddress(address _token) view external returns (uint256[] memory) {\n        return depositsByTokenAddress[_token];\n    }\n    \n    function getTokenTotalLockedBalance(address _token) view external returns (uint256) {\n       return IERC20(_token).balanceOf(address(this));\n    }\n}\n",
  "sourcePath": "C:/Users/aglamadrid19/vault-dapp/contracts/Vault.sol",
  "compiler": {
    "name": "solc",
    "version": "0.8.3+commit.8d00100c.Emscripten.clang"
  },
  "schemaVersion": "3.3.4",
  "updatedAt": "2021-04-17T11:35:38.501Z",
  "networkType": "ethereum",
  "devdoc": {
    "kind": "dev",
    "methods": {
      "owner()": {
        "details": "Returns the address of the current owner."
      },
      "renounceOwnership()": {
        "details": "Leaves the contract without owner. It will not be possible to call `onlyOwner` functions anymore. Can only be called by the current owner. NOTE: Renouncing ownership will leave the contract without an owner, thereby removing any functionality that is only available to the owner."
      },
      "transferOwnership(address)": {
        "details": "Transfers ownership of the contract to a new account (`newOwner`). Can only be called by the current owner."
      }
    },
    "version": 1
  },
  "userdoc": {
    "kind": "user",
    "methods": {},
    "version": 1
  }
}